{
  "contractName": "Faucet",
  "abi": [
    {
      "inputs": [],
      "name": "numOfFunders",
      "outputs": [
        {
          "internalType": "uint256",
          "name": "",
          "type": "uint256"
        }
      ],
      "stateMutability": "view",
      "type": "function",
      "constant": true
    },
    {
      "inputs": [],
      "name": "owner",
      "outputs": [
        {
          "internalType": "address",
          "name": "",
          "type": "address"
        }
      ],
      "stateMutability": "view",
      "type": "function",
      "constant": true
    },
    {
      "inputs": [],
      "name": "test4",
      "outputs": [
        {
          "internalType": "uint256",
          "name": "",
          "type": "uint256"
        }
      ],
      "stateMutability": "pure",
      "type": "function",
      "constant": true
    },
    {
      "inputs": [],
      "name": "testNum",
      "outputs": [
        {
          "internalType": "uint256",
          "name": "",
          "type": "uint256"
        }
      ],
      "stateMutability": "view",
      "type": "function",
      "constant": true
    },
    {
      "stateMutability": "payable",
      "type": "receive",
      "payable": true
    },
    {
      "inputs": [],
      "name": "emitLog",
      "outputs": [
        {
          "internalType": "bytes32",
          "name": "",
          "type": "bytes32"
        }
      ],
      "stateMutability": "pure",
      "type": "function",
      "constant": true
    },
    {
      "inputs": [
        {
          "internalType": "address",
          "name": "newOwner",
          "type": "address"
        }
      ],
      "name": "transferOwnership",
      "outputs": [],
      "stateMutability": "nonpayable",
      "type": "function"
    },
    {
      "inputs": [],
      "name": "addFunds",
      "outputs": [],
      "stateMutability": "payable",
      "type": "function",
      "payable": true
    },
    {
      "inputs": [],
      "name": "test1",
      "outputs": [],
      "stateMutability": "nonpayable",
      "type": "function"
    },
    {
      "inputs": [],
      "name": "test2",
      "outputs": [],
      "stateMutability": "nonpayable",
      "type": "function"
    },
    {
      "inputs": [
        {
          "internalType": "uint256",
          "name": "withdrawAmount",
          "type": "uint256"
        }
      ],
      "name": "withdraw",
      "outputs": [],
      "stateMutability": "nonpayable",
      "type": "function"
    },
    {
      "inputs": [],
      "name": "getAllFunders",
      "outputs": [
        {
          "internalType": "address[]",
          "name": "",
          "type": "address[]"
        }
      ],
      "stateMutability": "view",
      "type": "function",
      "constant": true
    },
    {
      "inputs": [
        {
          "internalType": "uint8",
          "name": "index",
          "type": "uint8"
        }
      ],
      "name": "getFounderAtIndex",
      "outputs": [
        {
          "internalType": "address",
          "name": "",
          "type": "address"
        }
      ],
      "stateMutability": "view",
      "type": "function",
      "constant": true
    }
  ],
  "bytecode": "0x608060405234801561001057600080fd5b50336000806101000a81548173ffffffffffffffffffffffffffffffffffffffff021916908373ffffffffffffffffffffffffffffffffffffffff1602179055506103e8600181905550610cd7806100696000396000f3fe6080604052600436106100ab5760003560e01c80638f0d282d116100645780638f0d282d146101a1578063a26759cb146101cc578063ae28f1ed146101d6578063af7f2c9b14610201578063f2fde38b1461022c578063f42c13bf14610255576100b2565b806317855fbe146100b75780632e1a7d4d146100f457806366e41cb71461011d5780636b59084d146101345780636fbbb55d1461014b5780638da5cb5b14610176576100b2565b366100b257005b600080fd5b3480156100c357600080fd5b506100de60048036038101906100d99190610813565b610280565b6040516100eb9190610881565b60405180910390f35b34801561010057600080fd5b5061011b600480360381019061011691906108d2565b6102c0565b005b34801561012957600080fd5b50610132610357565b005b34801561014057600080fd5b506101496103e7565b005b34801561015757600080fd5b50610160610477565b60405161016d91906109bd565b60405180910390f35b34801561018257600080fd5b5061018b610571565b6040516101989190610881565b60405180910390f35b3480156101ad57600080fd5b506101b6610595565b6040516101c391906109ee565b60405180910390f35b6101d46105a7565b005b3480156101e257600080fd5b506101eb6106c7565b6040516101f891906109ee565b60405180910390f35b34801561020d57600080fd5b506102166106cd565b60405161022391906109ee565b60405180910390f35b34801561023857600080fd5b50610253600480360381019061024e9190610a35565b6106d3565b005b34801561026157600080fd5b5061026a6107a4565b6040516102779190610a7b565b60405180910390f35b6000600460008360ff16815260200190815260200160002060009054906101000a900473ffffffffffffffffffffffffffffffffffffffff169050919050565b8067016345785d8a000081111561030c576040517f08c379a000000000000000000000000000000000000000000000000000000000815260040161030390610b19565b60405180910390fd5b3373ffffffffffffffffffffffffffffffffffffffff166108fc839081150290604051600060405180830381858888f19350505050158015610352573d6000803e3d6000fd5b505050565b60008054906101000a900473ffffffffffffffffffffffffffffffffffffffff1673ffffffffffffffffffffffffffffffffffffffff163373ffffffffffffffffffffffffffffffffffffffff16146103e5576040517f08c379a00000000000000000000000000000000000000000000000000000000081526004016103dc90610bab565b60405180910390fd5b565b60008054906101000a900473ffffffffffffffffffffffffffffffffffffffff1673ffffffffffffffffffffffffffffffffffffffff163373ffffffffffffffffffffffffffffffffffffffff1614610475576040517f08c379a000000000000000000000000000000000000000000000000000000000815260040161046c90610bab565b60405180910390fd5b565b6060600060025467ffffffffffffffff81111561049757610496610bcb565b5b6040519080825280602002602001820160405280156104c55781602001602082028036833780820191505090505b50905060005b600254811015610569576004600082815260200190815260200160002060009054906101000a900473ffffffffffffffffffffffffffffffffffffffff1682828151811061051c5761051b610bfa565b5b602002602001019073ffffffffffffffffffffffffffffffffffffffff16908173ffffffffffffffffffffffffffffffffffffffff1681525050808061056190610c58565b9150506104cb565b508091505090565b60008054906101000a900473ffffffffffffffffffffffffffffffffffffffff1681565b600061059f6107cc565b50600a905090565b6000339050600360008273ffffffffffffffffffffffffffffffffffffffff1673ffffffffffffffffffffffffffffffffffffffff16815260200190815260200160002060009054906101000a900460ff166106c45760006002600081548092919061061290610c58565b9190505590506001600360008473ffffffffffffffffffffffffffffffffffffffff1673ffffffffffffffffffffffffffffffffffffffff16815260200190815260200160002060006101000a81548160ff021916908315150217905550816004600083815260200190815260200160002060006101000a81548173ffffffffffffffffffffffffffffffffffffffff021916908373ffffffffffffffffffffffffffffffffffffffff160217905550505b50565b60015481565b60025481565b60008054906101000a900473ffffffffffffffffffffffffffffffffffffffff1673ffffffffffffffffffffffffffffffffffffffff163373ffffffffffffffffffffffffffffffffffffffff1614610761576040517f08c379a000000000000000000000000000000000000000000000000000000000815260040161075890610bab565b60405180910390fd5b806000806101000a81548173ffffffffffffffffffffffffffffffffffffffff021916908373ffffffffffffffffffffffffffffffffffffffff16021790555050565b60007f48656c6c6f6f0000000000000000000000000000000000000000000000000000905090565b60006064905090565b600080fd5b600060ff82169050919050565b6107f0816107da565b81146107fb57600080fd5b50565b60008135905061080d816107e7565b92915050565b600060208284031215610829576108286107d5565b5b6000610837848285016107fe565b91505092915050565b600073ffffffffffffffffffffffffffffffffffffffff82169050919050565b600061086b82610840565b9050919050565b61087b81610860565b82525050565b60006020820190506108966000830184610872565b92915050565b6000819050919050565b6108af8161089c565b81146108ba57600080fd5b50565b6000813590506108cc816108a6565b92915050565b6000602082840312156108e8576108e76107d5565b5b60006108f6848285016108bd565b91505092915050565b600081519050919050565b600082825260208201905092915050565b6000819050602082019050919050565b61093481610860565b82525050565b6000610946838361092b565b60208301905092915050565b6000602082019050919050565b600061096a826108ff565b610974818561090a565b935061097f8361091b565b8060005b838110156109b0578151610997888261093a565b97506109a283610952565b925050600181019050610983565b5085935050505092915050565b600060208201905081810360008301526109d7818461095f565b905092915050565b6109e88161089c565b82525050565b6000602082019050610a0360008301846109df565b92915050565b610a1281610860565b8114610a1d57600080fd5b50565b600081359050610a2f81610a09565b92915050565b600060208284031215610a4b57610a4a6107d5565b5b6000610a5984828501610a20565b91505092915050565b6000819050919050565b610a7581610a62565b82525050565b6000602082019050610a906000830184610a6c565b92915050565b600082825260208201905092915050565b7f43616e6e6f74207769746864726177206d6f7265207468616e20302e3120657460008201527f6865720000000000000000000000000000000000000000000000000000000000602082015250565b6000610b03602383610a96565b9150610b0e82610aa7565b604082019050919050565b60006020820190508181036000830152610b3281610af6565b9050919050565b7f4f6e6c79206f776e65722063616e2063616c6c20746869732066756e6374696f60008201527f6e00000000000000000000000000000000000000000000000000000000000000602082015250565b6000610b95602183610a96565b9150610ba082610b39565b604082019050919050565b60006020820190508181036000830152610bc481610b88565b9050919050565b7f4e487b7100000000000000000000000000000000000000000000000000000000600052604160045260246000fd5b7f4e487b7100000000000000000000000000000000000000000000000000000000600052603260045260246000fd5b7f4e487b7100000000000000000000000000000000000000000000000000000000600052601160045260246000fd5b6000610c638261089c565b91507fffffffffffffffffffffffffffffffffffffffffffffffffffffffffffffffff821415610c9657610c95610c29565b5b60018201905091905056fea2646970667358221220f2891826e8104d16f1f2c05d85fcc6f48d9e1c93e2ae2a8e8a427e7c8594d0cb64736f6c634300080a0033",
  "immutableReferences": {},
  "source": "// SPDX-License-Identifier: MIT\r\npragma solidity >=0.4.22 <0.9.0;\r\nimport \"./Owned.sol\";\r\nimport \"./Logger.sol\";\r\nimport \"./IFaucet.sol\";\r\n\r\ncontract Faucet is Owned, Logger, IFaucet {\r\n\r\n  uint public numOfFunders;\r\n  // mappings wont show its values in the view, but we could take numOfFunders as a ref to see the num of funders\r\n  // in a mapping you have to set the type of the key and the type of the value\r\n  mapping(address => bool) private funders;\r\n  mapping(uint => address) private lutFunders; // lut -> lookup table\r\n\r\n  modifier limitWithdraw(uint withdrawAmount) {\r\n    // Set the maximun withdraw amount of 0.1 ether, spefifying it in Wei\r\n    require(\r\n      withdrawAmount <= 100000000000000000,\r\n      \"Cannot withdraw more than 0.1 ether\"\r\n    );\r\n    // If the condition is met, the function body of a function calling this modifier will get executed\r\n    _;\r\n  }\r\n\r\n  receive() external payable {}\r\n\r\n  // overrided function inherited from Logger contract, it forces us to do it if we are inheriting an abstract contract \r\n  function emitLog() public override pure returns(bytes32) {\r\n    return \"Helloo\";\r\n  }\r\n\r\n  function transferOwnership(address newOwner) external onlyOwner {\r\n    owner = newOwner;\r\n  }\r\n\r\n  function addFunds() external payable {\r\n    // Assign the address of the sender\r\n    address funder = msg.sender;\r\n    // If the new address is not in funders mapping (To prevent duplications)\r\n    if (!funders[funder]) {\r\n      // It will get incremented once the function ends its execution, because we are asigning it to\r\n      // a variable definition, not just incrementing the already defined variable numOfFunders\r\n      uint index = numOfFunders++;\r\n      funders[funder] = true;\r\n      lutFunders[index] = funder;\r\n    }\r\n  }\r\n\r\n  // Just onlyOwner (our admin address) can call this function\r\n  function test1() external onlyOwner {\r\n    // some managing stuff that only admin should have access to\r\n  }\r\n\r\n  function test2() external onlyOwner {\r\n    // some managing stuff that only admin should have access to\r\n  }\r\n\r\n  function withdraw(uint withdrawAmount) external limitWithdraw(withdrawAmount) {\r\n    payable(msg.sender).transfer(withdrawAmount);\r\n  }\r\n\r\n  function getAllFunders() external view returns(address[] memory) {\r\n    // It will create an array of numOfFunders length\r\n    address[] memory _funders = new address[](numOfFunders);\r\n\r\n    for (uint i = 0; i < numOfFunders; i++) {\r\n      _funders[i] = lutFunders[i];\r\n    }\r\n\r\n    return _funders;\r\n  }\r\n\r\n  // It will return the address of the specified funder\r\n  function getFounderAtIndex(uint8 index) external view returns(address) {\r\n    return lutFunders[index];\r\n  }\r\n\r\n}\r\n\r\n// TESTING COMMANDS\r\n\r\n// instance = await Faucet.deployed()\r\n\r\n// instance.addFunds({from: accounts[0], value: \"2000000000000000000\"}) | 2 ether\r\n// instance.addFunds({from: accounts[1], value: \"1000000000000000000\"}) | 1 ether\r\n\r\n// instance.withdraw(\"900000000000000000\", {from: accounts[1]})\r\n\r\n// instance.getFunderAtIndex(0)\r\n// instance.getAllFunders()\r\n\r\n// See the owner admin address -> const owner = await instance.owner.call()\r\n\r\n// result = await instance.test3()\r\n// result.toString()",
  "sourcePath": "C:\\Users\\nestor navarro\\Desktop\\Apuntes y Cursos\\Cursos\\SolidityAndEthereum\\faucet-dapp\\contracts\\FaucetContract.sol",
  "compiler": {
    "name": "solc",
    "version": "0.8.10+commit.fc410830.Emscripten.clang"
  },
  "schemaVersion": "3.4.4",
  "updatedAt": "2022-01-11T13:49:43.892Z",
  "networkType": "ethereum",
  "devdoc": {
    "kind": "dev",
    "methods": {},
    "version": 1
  },
  "userdoc": {
    "kind": "user",
    "methods": {},
    "version": 1
  }
}